{
  "_format": "hh-sol-artifact-1",
  "contractName": "AssetTokenization",
  "sourceName": "contracts/Asset-Tokenization.sol",
  "abi": [
    {
      "inputs": [
        {
          "internalType": "address",
          "name": "farmer",
          "type": "address"
        }
      ],
      "name": "availableContract",
      "outputs": [
        {
          "internalType": "bool",
          "name": "",
          "type": "bool"
        }
      ],
      "stateMutability": "view",
      "type": "function"
    },
    {
      "inputs": [
        {
          "internalType": "address",
          "name": "farmerAddress",
          "type": "address"
        }
      ],
      "name": "buyNft",
      "outputs": [],
      "stateMutability": "payable",
      "type": "function"
    },
    {
      "inputs": [
        {
          "internalType": "bytes",
          "name": "",
          "type": "bytes"
        }
      ],
      "name": "checkUpkeep",
      "outputs": [
        {
          "internalType": "bool",
          "name": "upkeepNeeded",
          "type": "bool"
        },
        {
          "internalType": "bytes",
          "name": "",
          "type": "bytes"
        }
      ],
      "stateMutability": "view",
      "type": "function"
    },
    {
      "inputs": [
        {
          "internalType": "string",
          "name": "_farmerName",
          "type": "string"
        },
        {
          "internalType": "string",
          "name": "_description",
          "type": "string"
        },
        {
          "internalType": "uint256",
          "name": "_totalMint",
          "type": "uint256"
        },
        {
          "internalType": "uint256",
          "name": "_price",
          "type": "uint256"
        },
        {
          "internalType": "uint256",
          "name": "_expirationDate",
          "type": "uint256"
        }
      ],
      "name": "generateNftContract",
      "outputs": [],
      "stateMutability": "nonpayable",
      "type": "function"
    },
    {
      "inputs": [],
      "name": "getBuyers",
      "outputs": [
        {
          "internalType": "address[]",
          "name": "",
          "type": "address[]"
        }
      ],
      "stateMutability": "view",
      "type": "function"
    },
    {
      "inputs": [],
      "name": "getFarmers",
      "outputs": [
        {
          "internalType": "address[]",
          "name": "",
          "type": "address[]"
        }
      ],
      "stateMutability": "view",
      "type": "function"
    },
    {
      "inputs": [
        {
          "internalType": "address",
          "name": "farmerAddress",
          "type": "address"
        }
      ],
      "name": "getNftContractDetails",
      "outputs": [
        {
          "components": [
            {
              "internalType": "address",
              "name": "farmerAddress",
              "type": "address"
            },
            {
              "internalType": "string",
              "name": "farmerName",
              "type": "string"
            },
            {
              "internalType": "string",
              "name": "description",
              "type": "string"
            },
            {
              "internalType": "uint256",
              "name": "totalMint",
              "type": "uint256"
            },
            {
              "internalType": "uint256",
              "name": "availableMint",
              "type": "uint256"
            },
            {
              "internalType": "uint256",
              "name": "price",
              "type": "uint256"
            },
            {
              "internalType": "uint256",
              "name": "expirationDate",
              "type": "uint256"
            }
          ],
          "internalType": "struct AssetTokenization.nftContractDetails",
          "name": "",
          "type": "tuple"
        }
      ],
      "stateMutability": "view",
      "type": "function"
    },
    {
      "inputs": [
        {
          "internalType": "bytes",
          "name": "",
          "type": "bytes"
        }
      ],
      "name": "performUpkeep",
      "outputs": [],
      "stateMutability": "nonpayable",
      "type": "function"
    }
  ],
  "bytecode": "0x608060405234801561001057600080fd5b50615df5806100206000396000f3fe608060405260043610620000865760003560e01c8063789f8d401162000055578063789f8d40146200014c57806396b17536146200017c578063f64bfaba14620001c0578063fff1f74314620001f05762000086565b80634585e33b146200008b5780634c48d24814620000b9578063600b695614620000d95780636e04ff0d1462000107575b600080fd5b3480156200009857600080fd5b50620000b76004803603810190620000b1919062001362565b62000234565b005b620000d76004803603810190620000d191906200141c565b620004b9565b005b348015620000e657600080fd5b50620001056004803603810190620000ff9190620015e6565b620005de565b005b3480156200011457600080fd5b506200013360048036038101906200012d919062001362565b62000710565b6040516200014392919062001752565b60405180910390f35b3480156200015957600080fd5b5062000164620008ad565b60405162000173919062001854565b60405180910390f35b3480156200018957600080fd5b50620001a86004803603810190620001a291906200141c565b6200093d565b604051620001b7919062001997565b60405180910390f35b348015620001cd57600080fd5b50620001d862000fac565b604051620001e7919062001854565b60405180910390f35b348015620001fd57600080fd5b506200021c60048036038101906200021691906200141c565b620010dc565b6040516200022b9190620019bb565b60405180910390f35b60005b600080549050811015620004b45760008082815481106200025d576200025c620019d8565b5b9060005260206000200160009054906101000a900473ffffffffffffffffffffffffffffffffffffffff1690506200029581620010dc565b620002a157506200049e565b600160008273ffffffffffffffffffffffffffffffffffffffff1673ffffffffffffffffffffffffffffffffffffffff16815260200190815260200160002060009054906101000a900473ffffffffffffffffffffffffffffffffffffffff1673ffffffffffffffffffffffffffffffffffffffff16632f13b60c6040518163ffffffff1660e01b8152600401602060405180830381865afa1580156200034c573d6000803e3d6000fd5b505050506040513d601f19601f8201168201806040525081019062000372919062001a38565b156200049c57600160008273ffffffffffffffffffffffffffffffffffffffff1673ffffffffffffffffffffffffffffffffffffffff16815260200190815260200160002060009054906101000a900473ffffffffffffffffffffffffffffffffffffffff1673ffffffffffffffffffffffffffffffffffffffff1663740ea8ab6040518163ffffffff1660e01b8152600401600060405180830381600087803b1580156200042057600080fd5b505af115801562000435573d6000803e3d6000fd5b50505050600160008273ffffffffffffffffffffffffffffffffffffffff1673ffffffffffffffffffffffffffffffffffffffff16815260200190815260200160002060006101000a81549073ffffffffffffffffffffffffffffffffffffffff02191690555b505b8080620004ab9062001a99565b91505062000237565b505050565b620004c481620010dc565b62000506576040517f08c379a0000000000000000000000000000000000000000000000000000000008152600401620004fd9062001b47565b60405180910390fd5b6000339050600160008373ffffffffffffffffffffffffffffffffffffffff1673ffffffffffffffffffffffffffffffffffffffff16815260200190815260200160002060009054906101000a900473ffffffffffffffffffffffffffffffffffffffff1673ffffffffffffffffffffffffffffffffffffffff166354ba0f2734836040518363ffffffff1660e01b8152600401620005a6919062001b7a565b6000604051808303818588803b158015620005c057600080fd5b505af1158015620005d5573d6000803e3d6000fd5b50505050505050565b600033905060001515620005f282620010dc565b15151462000637576040517f08c379a00000000000000000000000000000000000000000000000000000000081526004016200062e9062001be7565b60405180910390fd5b620006428162001174565b600081878787878760405162000658906200127f565b620006699695949392919062001c5b565b604051809103906000f08015801562000686573d6000803e3d6000fd5b50905080600160008473ffffffffffffffffffffffffffffffffffffffff1673ffffffffffffffffffffffffffffffffffffffff16815260200190815260200160002060006101000a81548173ffffffffffffffffffffffffffffffffffffffff021916908373ffffffffffffffffffffffffffffffffffffffff16021790555050505050505050565b6000606060005b6000805490508110156200088e5760008082815481106200073d576200073c620019d8565b5b9060005260206000200160009054906101000a900473ffffffffffffffffffffffffffffffffffffffff1690506200077581620010dc565b62000781575062000878565b600160008273ffffffffffffffffffffffffffffffffffffffff1673ffffffffffffffffffffffffffffffffffffffff16815260200190815260200160002060009054906101000a900473ffffffffffffffffffffffffffffffffffffffff1673ffffffffffffffffffffffffffffffffffffffff16632f13b60c6040518163ffffffff1660e01b8152600401602060405180830381865afa1580156200082c573d6000803e3d6000fd5b505050506040513d601f19601f8201168201806040525081019062000852919062001a38565b156200087657600160405180602001604052806000815250935093505050620008a6565b505b8080620008859062001a99565b91505062000717565b50600060405180602001604052806000815250915091505b9250929050565b606060008054806020026020016040519081016040528092919081815260200182805480156200093357602002820191906000526020600020905b8160009054906101000a900473ffffffffffffffffffffffffffffffffffffffff1673ffffffffffffffffffffffffffffffffffffffff1681526020019060010190808311620008e8575b5050505050905090565b620009476200128d565b6200095282620010dc565b62000994576040517f08c379a00000000000000000000000000000000000000000000000000000000081526004016200098b9062001d26565b60405180910390fd5b6200099e6200128d565b6040518060e00160405280600160008673ffffffffffffffffffffffffffffffffffffffff1673ffffffffffffffffffffffffffffffffffffffff16815260200190815260200160002060009054906101000a900473ffffffffffffffffffffffffffffffffffffffff1673ffffffffffffffffffffffffffffffffffffffff1663b7b58b7f6040518163ffffffff1660e01b8152600401602060405180830381865afa15801562000a54573d6000803e3d6000fd5b505050506040513d601f19601f8201168201806040525081019062000a7a919062001d5f565b73ffffffffffffffffffffffffffffffffffffffff168152602001600160008673ffffffffffffffffffffffffffffffffffffffff1673ffffffffffffffffffffffffffffffffffffffff16815260200190815260200160002060009054906101000a900473ffffffffffffffffffffffffffffffffffffffff1673ffffffffffffffffffffffffffffffffffffffff1663ca669a8c6040518163ffffffff1660e01b8152600401600060405180830381865afa15801562000b40573d6000803e3d6000fd5b505050506040513d6000823e3d601f19601f8201168201806040525081019062000b6b919062001e0f565b8152602001600160008673ffffffffffffffffffffffffffffffffffffffff1673ffffffffffffffffffffffffffffffffffffffff16815260200190815260200160002060009054906101000a900473ffffffffffffffffffffffffffffffffffffffff1673ffffffffffffffffffffffffffffffffffffffff16637284e4166040518163ffffffff1660e01b8152600401600060405180830381865afa15801562000c1b573d6000803e3d6000fd5b505050506040513d6000823e3d601f19601f8201168201806040525081019062000c46919062001e0f565b8152602001600160008673ffffffffffffffffffffffffffffffffffffffff1673ffffffffffffffffffffffffffffffffffffffff16815260200190815260200160002060009054906101000a900473ffffffffffffffffffffffffffffffffffffffff1673ffffffffffffffffffffffffffffffffffffffff166359a7715a6040518163ffffffff1660e01b8152600401602060405180830381865afa15801562000cf6573d6000803e3d6000fd5b505050506040513d601f19601f8201168201806040525081019062000d1c919062001e77565b8152602001600160008673ffffffffffffffffffffffffffffffffffffffff1673ffffffffffffffffffffffffffffffffffffffff16815260200190815260200160002060009054906101000a900473ffffffffffffffffffffffffffffffffffffffff1673ffffffffffffffffffffffffffffffffffffffff1663b751cb3b6040518163ffffffff1660e01b8152600401602060405180830381865afa15801562000dcc573d6000803e3d6000fd5b505050506040513d601f19601f8201168201806040525081019062000df2919062001e77565b8152602001600160008673ffffffffffffffffffffffffffffffffffffffff1673ffffffffffffffffffffffffffffffffffffffff16815260200190815260200160002060009054906101000a900473ffffffffffffffffffffffffffffffffffffffff1673ffffffffffffffffffffffffffffffffffffffff1663a035b1fe6040518163ffffffff1660e01b8152600401602060405180830381865afa15801562000ea2573d6000803e3d6000fd5b505050506040513d601f19601f8201168201806040525081019062000ec8919062001e77565b8152602001600160008673ffffffffffffffffffffffffffffffffffffffff1673ffffffffffffffffffffffffffffffffffffffff16815260200190815260200160002060009054906101000a900473ffffffffffffffffffffffffffffffffffffffff1673ffffffffffffffffffffffffffffffffffffffff16638f6204876040518163ffffffff1660e01b8152600401602060405180830381865afa15801562000f78573d6000803e3d6000fd5b505050506040513d601f19601f8201168201806040525081019062000f9e919062001e77565b815250905080915050919050565b6060600033905062000fbe81620010dc565b62001000576040517f08c379a000000000000000000000000000000000000000000000000000000000815260040162000ff79062001b47565b60405180910390fd5b600160008273ffffffffffffffffffffffffffffffffffffffff1673ffffffffffffffffffffffffffffffffffffffff16815260200190815260200160002060009054906101000a900473ffffffffffffffffffffffffffffffffffffffff1673ffffffffffffffffffffffffffffffffffffffff1663d1b02ba76040518163ffffffff1660e01b8152600401600060405180830381865afa158015620010ab573d6000803e3d6000fd5b505050506040513d6000823e3d601f19601f82011682018060405250810190620010d6919062001f7f565b91505090565b60008073ffffffffffffffffffffffffffffffffffffffff16600160008473ffffffffffffffffffffffffffffffffffffffff1673ffffffffffffffffffffffffffffffffffffffff16815260200190815260200160002060009054906101000a900473ffffffffffffffffffffffffffffffffffffffff1673ffffffffffffffffffffffffffffffffffffffff1614159050919050565b60005b6000805490508110156200121757600081815481106200119c576200119b620019d8565b5b9060005260206000200160009054906101000a900473ffffffffffffffffffffffffffffffffffffffff1673ffffffffffffffffffffffffffffffffffffffff168273ffffffffffffffffffffffffffffffffffffffff16036200120157506200127c565b80806200120e9062001a99565b91505062001177565b506000819080600181540180825580915050600190039060005260206000200160009091909190916101000a81548173ffffffffffffffffffffffffffffffffffffffff021916908373ffffffffffffffffffffffffffffffffffffffff1602179055505b50565b613def8062001fd183390190565b6040518060e00160405280600073ffffffffffffffffffffffffffffffffffffffff1681526020016060815260200160608152602001600081526020016000815260200160008152602001600081525090565b6000604051905090565b600080fd5b600080fd5b600080fd5b600080fd5b600080fd5b60008083601f8401126200131c576200131b620012f4565b5b8235905067ffffffffffffffff8111156200133c576200133b620012f9565b5b6020830191508360018202830111156200135b576200135a620012fe565b5b9250929050565b600080602083850312156200137c576200137b620012ea565b5b600083013567ffffffffffffffff8111156200139d576200139c620012ef565b5b620013ab8582860162001303565b92509250509250929050565b600073ffffffffffffffffffffffffffffffffffffffff82169050919050565b6000620013e482620013b7565b9050919050565b620013f681620013d7565b81146200140257600080fd5b50565b6000813590506200141681620013eb565b92915050565b600060208284031215620014355762001434620012ea565b5b6000620014458482850162001405565b91505092915050565b600080fd5b6000601f19601f8301169050919050565b7f4e487b7100000000000000000000000000000000000000000000000000000000600052604160045260246000fd5b6200149e8262001453565b810181811067ffffffffffffffff82111715620014c057620014bf62001464565b5b80604052505050565b6000620014d5620012e0565b9050620014e3828262001493565b919050565b600067ffffffffffffffff82111562001506576200150562001464565b5b620015118262001453565b9050602081019050919050565b82818337600083830152505050565b6000620015446200153e84620014e8565b620014c9565b9050828152602081018484840111156200156357620015626200144e565b5b620015708482856200151e565b509392505050565b600082601f83011262001590576200158f620012f4565b5b8135620015a28482602086016200152d565b91505092915050565b6000819050919050565b620015c081620015ab565b8114620015cc57600080fd5b50565b600081359050620015e081620015b5565b92915050565b600080600080600060a08688031215620016055762001604620012ea565b5b600086013567ffffffffffffffff811115620016265762001625620012ef565b5b620016348882890162001578565b955050602086013567ffffffffffffffff811115620016585762001657620012ef565b5b620016668882890162001578565b94505060406200167988828901620015cf565b93505060606200168c88828901620015cf565b92505060806200169f88828901620015cf565b9150509295509295909350565b60008115159050919050565b620016c381620016ac565b82525050565b600081519050919050565b600082825260208201905092915050565b60005b8381101562001705578082015181840152602081019050620016e8565b60008484015250505050565b60006200171e82620016c9565b6200172a8185620016d4565b93506200173c818560208601620016e5565b620017478162001453565b840191505092915050565b6000604082019050620017696000830185620016b8565b81810360208301526200177d818462001711565b90509392505050565b600081519050919050565b600082825260208201905092915050565b6000819050602082019050919050565b620017bd81620013d7565b82525050565b6000620017d18383620017b2565b60208301905092915050565b6000602082019050919050565b6000620017f78262001786565b62001803818562001791565b93506200181083620017a2565b8060005b83811015620018475781516200182b8882620017c3565b97506200183883620017dd565b92505060018101905062001814565b5085935050505092915050565b60006020820190508181036000830152620018708184620017ea565b905092915050565b600081519050919050565b600082825260208201905092915050565b6000620018a18262001878565b620018ad818562001883565b9350620018bf818560208601620016e5565b620018ca8162001453565b840191505092915050565b620018e081620015ab565b82525050565b600060e083016000830151620019006000860182620017b2565b50602083015184820360208601526200191a828262001894565b9150506040830151848203604086015262001936828262001894565b91505060608301516200194d6060860182620018d5565b506080830151620019626080860182620018d5565b5060a08301516200197760a0860182620018d5565b5060c08301516200198c60c0860182620018d5565b508091505092915050565b60006020820190508181036000830152620019b38184620018e6565b905092915050565b6000602082019050620019d26000830184620016b8565b92915050565b7f4e487b7100000000000000000000000000000000000000000000000000000000600052603260045260246000fd5b62001a1281620016ac565b811462001a1e57600080fd5b50565b60008151905062001a328162001a07565b92915050565b60006020828403121562001a515762001a50620012ea565b5b600062001a618482850162001a21565b91505092915050565b7f4e487b7100000000000000000000000000000000000000000000000000000000600052601160045260246000fd5b600062001aa682620015ab565b91507fffffffffffffffffffffffffffffffffffffffffffffffffffffffffffffffff820362001adb5762001ada62001a6a565b5b600182019050919050565b600082825260208201905092915050565b7f4e6f7420796574206465706c6f79656400000000000000000000000000000000600082015250565b600062001b2f60108362001ae6565b915062001b3c8262001af7565b602082019050919050565b6000602082019050818103600083015262001b628162001b20565b9050919050565b62001b7481620013d7565b82525050565b600060208201905062001b91600083018462001b69565b92915050565b7f596f757220746f6b656e20697320616c7265616479206465706c6f7965640000600082015250565b600062001bcf601e8362001ae6565b915062001bdc8262001b97565b602082019050919050565b6000602082019050818103600083015262001c028162001bc0565b9050919050565b600062001c168262001878565b62001c22818562001ae6565b935062001c34818560208601620016e5565b62001c3f8162001453565b840191505092915050565b62001c5581620015ab565b82525050565b600060c08201905062001c72600083018962001b69565b818103602083015262001c86818862001c09565b9050818103604083015262001c9c818762001c09565b905062001cad606083018662001c4a565b62001cbc608083018562001c4a565b62001ccb60a083018462001c4a565b979650505050505050565b7f6e6f7420617661696c61626c6500000000000000000000000000000000000000600082015250565b600062001d0e600d8362001ae6565b915062001d1b8262001cd6565b602082019050919050565b6000602082019050818103600083015262001d418162001cff565b9050919050565b60008151905062001d5981620013eb565b92915050565b60006020828403121562001d785762001d77620012ea565b5b600062001d888482850162001d48565b91505092915050565b600062001da862001da284620014e8565b620014c9565b90508281526020810184848401111562001dc75762001dc66200144e565b5b62001dd4848285620016e5565b509392505050565b600082601f83011262001df45762001df3620012f4565b5b815162001e0684826020860162001d91565b91505092915050565b60006020828403121562001e285762001e27620012ea565b5b600082015167ffffffffffffffff81111562001e495762001e48620012ef565b5b62001e578482850162001ddc565b91505092915050565b60008151905062001e7181620015b5565b92915050565b60006020828403121562001e905762001e8f620012ea565b5b600062001ea08482850162001e60565b91505092915050565b600067ffffffffffffffff82111562001ec75762001ec662001464565b5b602082029050602081019050919050565b600062001eef62001ee98462001ea9565b620014c9565b9050808382526020820190506020840283018581111562001f155762001f14620012fe565b5b835b8181101562001f42578062001f2d888262001d48565b84526020840193505060208101905062001f17565b5050509392505050565b600082601f83011262001f645762001f63620012f4565b5b815162001f7684826020860162001ed8565b91505092915050565b60006020828403121562001f985762001f97620012ea565b5b600082015167ffffffffffffffff81111562001fb95762001fb8620012ef565b5b62001fc78482850162001f4c565b9150509291505056fe60806040523480156200001157600080fd5b5060405162003def38038062003def833981810160405281019062000037919062000389565b6040518060400160405280600881526020017f4661726d204e46540000000000000000000000000000000000000000000000008152506040518060400160405280600481526020017f4641524d000000000000000000000000000000000000000000000000000000008152508160009081620000b49190620006a4565b508060019081620000c69190620006a4565b50505085600660006101000a81548173ffffffffffffffffffffffffffffffffffffffff021916908373ffffffffffffffffffffffffffffffffffffffff16021790555084600790816200011b9190620006a4565b5083600890816200012d9190620006a4565b508260098190555082600a8190555081600b8190555080600c819055505050505050506200078b565b6000604051905090565b600080fd5b600080fd5b600073ffffffffffffffffffffffffffffffffffffffff82169050919050565b600062000197826200016a565b9050919050565b620001a9816200018a565b8114620001b557600080fd5b50565b600081519050620001c9816200019e565b92915050565b600080fd5b600080fd5b6000601f19601f8301169050919050565b7f4e487b7100000000000000000000000000000000000000000000000000000000600052604160045260246000fd5b6200022482620001d9565b810181811067ffffffffffffffff82111715620002465762000245620001ea565b5b80604052505050565b60006200025b62000156565b905062000269828262000219565b919050565b600067ffffffffffffffff8211156200028c576200028b620001ea565b5b6200029782620001d9565b9050602081019050919050565b60005b83811015620002c4578082015181840152602081019050620002a7565b60008484015250505050565b6000620002e7620002e1846200026e565b6200024f565b905082815260208101848484011115620003065762000305620001d4565b5b62000313848285620002a4565b509392505050565b600082601f830112620003335762000332620001cf565b5b815162000345848260208601620002d0565b91505092915050565b6000819050919050565b62000363816200034e565b81146200036f57600080fd5b50565b600081519050620003838162000358565b92915050565b60008060008060008060c08789031215620003a957620003a862000160565b5b6000620003b989828a01620001b8565b965050602087015167ffffffffffffffff811115620003dd57620003dc62000165565b5b620003eb89828a016200031b565b955050604087015167ffffffffffffffff8111156200040f576200040e62000165565b5b6200041d89828a016200031b565b94505060606200043089828a0162000372565b93505060806200044389828a0162000372565b92505060a06200045689828a0162000372565b9150509295509295509295565b600081519050919050565b7f4e487b7100000000000000000000000000000000000000000000000000000000600052602260045260246000fd5b60006002820490506001821680620004b657607f821691505b602082108103620004cc57620004cb6200046e565b5b50919050565b60008190508160005260206000209050919050565b60006020601f8301049050919050565b600082821b905092915050565b600060088302620005367fffffffffffffffffffffffffffffffffffffffffffffffffffffffffffffffff82620004f7565b620005428683620004f7565b95508019841693508086168417925050509392505050565b6000819050919050565b6000620005856200057f62000579846200034e565b6200055a565b6200034e565b9050919050565b6000819050919050565b620005a18362000564565b620005b9620005b0826200058c565b84845462000504565b825550505050565b600090565b620005d0620005c1565b620005dd81848462000596565b505050565b5b818110156200060557620005f9600082620005c6565b600181019050620005e3565b5050565b601f82111562000654576200061e81620004d2565b6200062984620004e7565b8101602085101562000639578190505b620006516200064885620004e7565b830182620005e2565b50505b505050565b600082821c905092915050565b6000620006796000198460080262000659565b1980831691505092915050565b600062000694838362000666565b9150826002028217905092915050565b620006af8262000463565b67ffffffffffffffff811115620006cb57620006ca620001ea565b5b620006d782546200049d565b620006e482828562000609565b600060209050601f8311600181146200071c576000841562000707578287015190505b62000713858262000686565b86555062000783565b601f1984166200072c86620004d2565b60005b8281101562000756578489015182556001820191506020850194506020810190506200072f565b8683101562000776578489015162000772601f89168262000666565b8355505b6001600288020188555050505b505050505050565b613654806200079b6000396000f3fe60806040526004361061014b5760003560e01c8063740ea8ab116100b6578063b7b58b7f1161006f578063b7b58b7f14610473578063b88d4fde1461049e578063c87b56dd146104c7578063ca669a8c14610504578063d1b02ba71461052f578063e985e9c51461055a5761014b565b8063740ea8ab146103875780638f6204871461039e57806395d89b41146103c9578063a035b1fe146103f4578063a22cb4651461041f578063b751cb3b146104485761014b565b806342842e0e1161010857806342842e0e1461027257806354ba0f271461029b57806359a7715a146102b75780636352211e146102e257806370a082311461031f5780637284e4161461035c5761014b565b806301ffc9a71461015057806306fdde031461018d578063081812fc146101b8578063095ea7b3146101f557806323b872dd1461021e5780632f13b60c14610247575b600080fd5b34801561015c57600080fd5b50610177600480360381019061017291906121a7565b610597565b60405161018491906121ef565b60405180910390f35b34801561019957600080fd5b506101a2610679565b6040516101af919061229a565b60405180910390f35b3480156101c457600080fd5b506101df60048036038101906101da91906122f2565b61070b565b6040516101ec9190612360565b60405180910390f35b34801561020157600080fd5b5061021c600480360381019061021791906123a7565b610751565b005b34801561022a57600080fd5b50610245600480360381019061024091906123e7565b610868565b005b34801561025357600080fd5b5061025c6108c8565b60405161026991906121ef565b60405180910390f35b34801561027e57600080fd5b50610299600480360381019061029491906123e7565b6108e5565b005b6102b560048036038101906102b0919061243a565b610905565b005b3480156102c357600080fd5b506102cc610ab3565b6040516102d99190612476565b60405180910390f35b3480156102ee57600080fd5b50610309600480360381019061030491906122f2565b610ab9565b6040516103169190612360565b60405180910390f35b34801561032b57600080fd5b506103466004803603810190610341919061243a565b610b3f565b6040516103539190612476565b60405180910390f35b34801561036857600080fd5b50610371610bf6565b60405161037e919061229a565b60405180910390f35b34801561039357600080fd5b5061039c610c84565b005b3480156103aa57600080fd5b506103b3610cfe565b6040516103c09190612476565b60405180910390f35b3480156103d557600080fd5b506103de610d04565b6040516103eb919061229a565b60405180910390f35b34801561040057600080fd5b50610409610d96565b6040516104169190612476565b60405180910390f35b34801561042b57600080fd5b50610446600480360381019061044191906124bd565b610d9c565b005b34801561045457600080fd5b5061045d610db2565b60405161046a9190612476565b60405180910390f35b34801561047f57600080fd5b50610488610db8565b6040516104959190612360565b60405180910390f35b3480156104aa57600080fd5b506104c560048036038101906104c09190612632565b610dde565b005b3480156104d357600080fd5b506104ee60048036038101906104e991906122f2565b610e40565b6040516104fb919061229a565b60405180910390f35b34801561051057600080fd5b50610519610eb0565b604051610526919061229a565b60405180910390f35b34801561053b57600080fd5b50610544610f3e565b6040516105519190612773565b60405180910390f35b34801561056657600080fd5b50610581600480360381019061057c9190612795565b61101b565b60405161058e91906121ef565b60405180910390f35b60007f80ac58cd000000000000000000000000000000000000000000000000000000007bffffffffffffffffffffffffffffffffffffffffffffffffffffffff1916827bffffffffffffffffffffffffffffffffffffffffffffffffffffffff1916148061066257507f5b5e139f000000000000000000000000000000000000000000000000000000007bffffffffffffffffffffffffffffffffffffffffffffffffffffffff1916827bffffffffffffffffffffffffffffffffffffffffffffffffffffffff1916145b806106725750610671826110af565b5b9050919050565b60606000805461068890612804565b80601f01602080910402602001604051908101604052809291908181526020018280546106b490612804565b80156107015780601f106106d657610100808354040283529160200191610701565b820191906000526020600020905b8154815290600101906020018083116106e457829003601f168201915b5050505050905090565b600061071682611119565b6004600083815260200190815260200160002060009054906101000a900473ffffffffffffffffffffffffffffffffffffffff169050919050565b600061075c82610ab9565b90508073ffffffffffffffffffffffffffffffffffffffff168373ffffffffffffffffffffffffffffffffffffffff16036107cc576040517f08c379a00000000000000000000000000000000000000000000000000000000081526004016107c3906128a7565b60405180910390fd5b8073ffffffffffffffffffffffffffffffffffffffff166107eb611164565b73ffffffffffffffffffffffffffffffffffffffff16148061081a575061081981610814611164565b61101b565b5b610859576040517f08c379a000000000000000000000000000000000000000000000000000000000815260040161085090612939565b60405180910390fd5b610863838361116c565b505050565b610879610873611164565b82611225565b6108b8576040517f08c379a00000000000000000000000000000000000000000000000000000000081526004016108af906129cb565b60405180910390fd5b6108c38383836112ba565b505050565b600042600c5410156108dd57600190506108e2565b600090505b90565b61090083838360405180602001604052806000815250610dde565b505050565b6000600a541161094a576040517f08c379a000000000000000000000000000000000000000000000000000000000815260040161094190612a37565b60405180910390fd5b600015156109566108c8565b151514610998576040517f08c379a000000000000000000000000000000000000000000000000000000000815260040161098f90612aa3565b60405180910390fd5b600b5434146109a657600080fd5b60006109b2600d6115b3565b90506109be82826115c1565b6109c8600d6115df565b600a60008154809291906109db90612af2565b91905055506000600660009054906101000a900473ffffffffffffffffffffffffffffffffffffffff1673ffffffffffffffffffffffffffffffffffffffff1634604051610a2890612b4c565b60006040518083038185875af1925050503d8060008114610a65576040519150601f19603f3d011682016040523d82523d6000602084013e610a6a565b606091505b5050905080610aae576040517f08c379a0000000000000000000000000000000000000000000000000000000008152600401610aa590612bad565b60405180910390fd5b505050565b60095481565b600080610ac5836115f5565b9050600073ffffffffffffffffffffffffffffffffffffffff168173ffffffffffffffffffffffffffffffffffffffff1603610b36576040517f08c379a0000000000000000000000000000000000000000000000000000000008152600401610b2d90612c19565b60405180910390fd5b80915050919050565b60008073ffffffffffffffffffffffffffffffffffffffff168273ffffffffffffffffffffffffffffffffffffffff1603610baf576040517f08c379a0000000000000000000000000000000000000000000000000000000008152600401610ba690612cab565b60405180910390fd5b600360008373ffffffffffffffffffffffffffffffffffffffff1673ffffffffffffffffffffffffffffffffffffffff168152602001908152602001600020549050919050565b60088054610c0390612804565b80601f0160208091040260200160405190810160405280929190818152602001828054610c2f90612804565b8015610c7c5780601f10610c5157610100808354040283529160200191610c7c565b820191906000526020600020905b815481529060010190602001808311610c5f57829003601f168201915b505050505081565b610c8c6108c8565b610ccb576040517f08c379a0000000000000000000000000000000000000000000000000000000008152600401610cc290612d17565b60405180910390fd5b60005b610cd8600d6115b3565b811015610cfb57610ce881611632565b8080610cf390612d37565b915050610cce565b50565b600c5481565b606060018054610d1390612804565b80601f0160208091040260200160405190810160405280929190818152602001828054610d3f90612804565b8015610d8c5780601f10610d6157610100808354040283529160200191610d8c565b820191906000526020600020905b815481529060010190602001808311610d6f57829003601f168201915b5050505050905090565b600b5481565b610dae610da7611164565b8383611780565b5050565b600a5481565b600660009054906101000a900473ffffffffffffffffffffffffffffffffffffffff1681565b610def610de9611164565b83611225565b610e2e576040517f08c379a0000000000000000000000000000000000000000000000000000000008152600401610e25906129cb565b60405180910390fd5b610e3a848484846118ec565b50505050565b60606000610e80610e4f610679565b610e5885611948565b6008604051602001610e6c9392919061301b565b604051602081830303815290604052611a16565b9050600081604051602001610e9591906130da565b60405160208183030381529060405290508092505050919050565b60078054610ebd90612804565b80601f0160208091040260200160405190810160405280929190818152602001828054610ee990612804565b8015610f365780601f10610f0b57610100808354040283529160200191610f36565b820191906000526020600020905b815481529060010190602001808311610f1957829003601f168201915b505050505081565b60606000610f4c600d6115b3565b67ffffffffffffffff811115610f6557610f64612507565b5b604051908082528060200260200182016040528015610f935781602001602082028036833780820191505090505b50905060005b610fa3600d6115b3565b81101561101357610fb381610ab9565b828281518110610fc657610fc56130fc565b5b602002602001019073ffffffffffffffffffffffffffffffffffffffff16908173ffffffffffffffffffffffffffffffffffffffff1681525050808061100b90612d37565b915050610f99565b508091505090565b6000600560008473ffffffffffffffffffffffffffffffffffffffff1673ffffffffffffffffffffffffffffffffffffffff16815260200190815260200160002060008373ffffffffffffffffffffffffffffffffffffffff1673ffffffffffffffffffffffffffffffffffffffff16815260200190815260200160002060009054906101000a900460ff16905092915050565b60007f01ffc9a7000000000000000000000000000000000000000000000000000000007bffffffffffffffffffffffffffffffffffffffffffffffffffffffff1916827bffffffffffffffffffffffffffffffffffffffffffffffffffffffff1916149050919050565b61112281611b79565b611161576040517f08c379a000000000000000000000000000000000000000000000000000000000815260040161115890612c19565b60405180910390fd5b50565b600033905090565b816004600083815260200190815260200160002060006101000a81548173ffffffffffffffffffffffffffffffffffffffff021916908373ffffffffffffffffffffffffffffffffffffffff160217905550808273ffffffffffffffffffffffffffffffffffffffff166111df83610ab9565b73ffffffffffffffffffffffffffffffffffffffff167f8c5be1e5ebec7d5bd14f71427d1e84f3dd0314c0f7b2291e5b200ac8c7c3b92560405160405180910390a45050565b60008061123183610ab9565b90508073ffffffffffffffffffffffffffffffffffffffff168473ffffffffffffffffffffffffffffffffffffffff1614806112735750611272818561101b565b5b806112b157508373ffffffffffffffffffffffffffffffffffffffff166112998461070b565b73ffffffffffffffffffffffffffffffffffffffff16145b91505092915050565b8273ffffffffffffffffffffffffffffffffffffffff166112da82610ab9565b73ffffffffffffffffffffffffffffffffffffffff1614611330576040517f08c379a00000000000000000000000000000000000000000000000000000000081526004016113279061319d565b60405180910390fd5b600073ffffffffffffffffffffffffffffffffffffffff168273ffffffffffffffffffffffffffffffffffffffff160361139f576040517f08c379a00000000000000000000000000000000000000000000000000000000081526004016113969061322f565b60405180910390fd5b6113ac8383836001611bba565b8273ffffffffffffffffffffffffffffffffffffffff166113cc82610ab9565b73ffffffffffffffffffffffffffffffffffffffff1614611422576040517f08c379a00000000000000000000000000000000000000000000000000000000081526004016114199061319d565b60405180910390fd5b6004600082815260200190815260200160002060006101000a81549073ffffffffffffffffffffffffffffffffffffffff02191690556001600360008573ffffffffffffffffffffffffffffffffffffffff1673ffffffffffffffffffffffffffffffffffffffff168152602001908152602001600020600082825403925050819055506001600360008473ffffffffffffffffffffffffffffffffffffffff1673ffffffffffffffffffffffffffffffffffffffff16815260200190815260200160002060008282540192505081905550816002600083815260200190815260200160002060006101000a81548173ffffffffffffffffffffffffffffffffffffffff021916908373ffffffffffffffffffffffffffffffffffffffff160217905550808273ffffffffffffffffffffffffffffffffffffffff168473ffffffffffffffffffffffffffffffffffffffff167fddf252ad1be2c89b69c2b068fc378daa952ba7f163c4a11628f55a4df523b3ef60405160405180910390a46115ae8383836001611bc0565b505050565b600081600001549050919050565b6115db828260405180602001604052806000815250611bc6565b5050565b6001816000016000828254019250508190555050565b60006002600083815260200190815260200160002060009054906101000a900473ffffffffffffffffffffffffffffffffffffffff169050919050565b600061163d82610ab9565b905061164d816000846001611bba565b61165682610ab9565b90506004600083815260200190815260200160002060006101000a81549073ffffffffffffffffffffffffffffffffffffffff02191690556001600360008373ffffffffffffffffffffffffffffffffffffffff1673ffffffffffffffffffffffffffffffffffffffff168152602001908152602001600020600082825403925050819055506002600083815260200190815260200160002060006101000a81549073ffffffffffffffffffffffffffffffffffffffff021916905581600073ffffffffffffffffffffffffffffffffffffffff168273ffffffffffffffffffffffffffffffffffffffff167fddf252ad1be2c89b69c2b068fc378daa952ba7f163c4a11628f55a4df523b3ef60405160405180910390a461177c816000846001611bc0565b5050565b8173ffffffffffffffffffffffffffffffffffffffff168373ffffffffffffffffffffffffffffffffffffffff16036117ee576040517f08c379a00000000000000000000000000000000000000000000000000000000081526004016117e59061329b565b60405180910390fd5b80600560008573ffffffffffffffffffffffffffffffffffffffff1673ffffffffffffffffffffffffffffffffffffffff16815260200190815260200160002060008473ffffffffffffffffffffffffffffffffffffffff1673ffffffffffffffffffffffffffffffffffffffff16815260200190815260200160002060006101000a81548160ff0219169083151502179055508173ffffffffffffffffffffffffffffffffffffffff168373ffffffffffffffffffffffffffffffffffffffff167f17307eab39ab6107e8899845ad3d59bd9653f200f220920489ca2b5937696c31836040516118df91906121ef565b60405180910390a3505050565b6118f78484846112ba565b61190384848484611c21565b611942576040517f08c379a00000000000000000000000000000000000000000000000000000000081526004016119399061332d565b60405180910390fd5b50505050565b60606000600161195784611da8565b01905060008167ffffffffffffffff81111561197657611975612507565b5b6040519080825280601f01601f1916602001820160405280156119a85781602001600182028036833780820191505090505b509050600082602001820190505b600115611a0b578080600190039150507f3031323334353637383961626364656600000000000000000000000000000000600a86061a8153600a85816119ff576119fe61334d565b5b049450600085036119b6575b819350505050919050565b60606000825103611a3857604051806020016040528060008152509050611b74565b60006040518060600160405280604081526020016135df6040913990506000600360028551611a67919061337c565b611a7191906133b0565b6004611a7d91906133e1565b67ffffffffffffffff811115611a9657611a95612507565b5b6040519080825280601f01601f191660200182016040528015611ac85781602001600182028036833780820191505090505b509050600182016020820185865187015b80821015611b34576003820191508151603f8160121c168501518453600184019350603f81600c1c168501518453600184019350603f8160061c168501518453600184019350603f8116850151845360018401935050611ad9565b5050600386510660018114611b505760028114611b6357611b6b565b603d6001830353603d6002830353611b6b565b603d60018303535b50505080925050505b919050565b60008073ffffffffffffffffffffffffffffffffffffffff16611b9b836115f5565b73ffffffffffffffffffffffffffffffffffffffff1614159050919050565b50505050565b50505050565b611bd08383611efb565b611bdd6000848484611c21565b611c1c576040517f08c379a0000000000000000000000000000000000000000000000000000000008152600401611c139061332d565b60405180910390fd5b505050565b6000611c428473ffffffffffffffffffffffffffffffffffffffff16612118565b15611d9b578373ffffffffffffffffffffffffffffffffffffffff1663150b7a02611c6b611164565b8786866040518563ffffffff1660e01b8152600401611c8d9493929190613478565b6020604051808303816000875af1925050508015611cc957506040513d601f19601f82011682018060405250810190611cc691906134d9565b60015b611d4b573d8060008114611cf9576040519150601f19603f3d011682016040523d82523d6000602084013e611cfe565b606091505b506000815103611d43576040517f08c379a0000000000000000000000000000000000000000000000000000000008152600401611d3a9061332d565b60405180910390fd5b805181602001fd5b63150b7a0260e01b7bffffffffffffffffffffffffffffffffffffffffffffffffffffffff1916817bffffffffffffffffffffffffffffffffffffffffffffffffffffffff191614915050611da0565b600190505b949350505050565b600080600090507a184f03e93ff9f4daa797ed6e38ed64bf6a1f0100000000000000008310611e06577a184f03e93ff9f4daa797ed6e38ed64bf6a1f0100000000000000008381611dfc57611dfb61334d565b5b0492506040810190505b6d04ee2d6d415b85acef81000000008310611e43576d04ee2d6d415b85acef81000000008381611e3957611e3861334d565b5b0492506020810190505b662386f26fc100008310611e7257662386f26fc100008381611e6857611e6761334d565b5b0492506010810190505b6305f5e1008310611e9b576305f5e1008381611e9157611e9061334d565b5b0492506008810190505b6127108310611ec0576127108381611eb657611eb561334d565b5b0492506004810190505b60648310611ee35760648381611ed957611ed861334d565b5b0492506002810190505b600a8310611ef2576001810190505b80915050919050565b600073ffffffffffffffffffffffffffffffffffffffff168273ffffffffffffffffffffffffffffffffffffffff1603611f6a576040517f08c379a0000000000000000000000000000000000000000000000000000000008152600401611f6190613552565b60405180910390fd5b611f7381611b79565b15611fb3576040517f08c379a0000000000000000000000000000000000000000000000000000000008152600401611faa906135be565b60405180910390fd5b611fc1600083836001611bba565b611fca81611b79565b1561200a576040517f08c379a0000000000000000000000000000000000000000000000000000000008152600401612001906135be565b60405180910390fd5b6001600360008473ffffffffffffffffffffffffffffffffffffffff1673ffffffffffffffffffffffffffffffffffffffff16815260200190815260200160002060008282540192505081905550816002600083815260200190815260200160002060006101000a81548173ffffffffffffffffffffffffffffffffffffffff021916908373ffffffffffffffffffffffffffffffffffffffff160217905550808273ffffffffffffffffffffffffffffffffffffffff16600073ffffffffffffffffffffffffffffffffffffffff167fddf252ad1be2c89b69c2b068fc378daa952ba7f163c4a11628f55a4df523b3ef60405160405180910390a4612114600083836001611bc0565b5050565b6000808273ffffffffffffffffffffffffffffffffffffffff163b119050919050565b6000604051905090565b600080fd5b600080fd5b60007fffffffff0000000000000000000000000000000000000000000000000000000082169050919050565b6121848161214f565b811461218f57600080fd5b50565b6000813590506121a18161217b565b92915050565b6000602082840312156121bd576121bc612145565b5b60006121cb84828501612192565b91505092915050565b60008115159050919050565b6121e9816121d4565b82525050565b600060208201905061220460008301846121e0565b92915050565b600081519050919050565b600082825260208201905092915050565b60005b83811015612244578082015181840152602081019050612229565b60008484015250505050565b6000601f19601f8301169050919050565b600061226c8261220a565b6122768185612215565b9350612286818560208601612226565b61228f81612250565b840191505092915050565b600060208201905081810360008301526122b48184612261565b905092915050565b6000819050919050565b6122cf816122bc565b81146122da57600080fd5b50565b6000813590506122ec816122c6565b92915050565b60006020828403121561230857612307612145565b5b6000612316848285016122dd565b91505092915050565b600073ffffffffffffffffffffffffffffffffffffffff82169050919050565b600061234a8261231f565b9050919050565b61235a8161233f565b82525050565b60006020820190506123756000830184612351565b92915050565b6123848161233f565b811461238f57600080fd5b50565b6000813590506123a18161237b565b92915050565b600080604083850312156123be576123bd612145565b5b60006123cc85828601612392565b92505060206123dd858286016122dd565b9150509250929050565b600080600060608486031215612400576123ff612145565b5b600061240e86828701612392565b935050602061241f86828701612392565b9250506040612430868287016122dd565b9150509250925092565b6000602082840312156124505761244f612145565b5b600061245e84828501612392565b91505092915050565b612470816122bc565b82525050565b600060208201905061248b6000830184612467565b92915050565b61249a816121d4565b81146124a557600080fd5b50565b6000813590506124b781612491565b92915050565b600080604083850312156124d4576124d3612145565b5b60006124e285828601612392565b92505060206124f3858286016124a8565b9150509250929050565b600080fd5b600080fd5b7f4e487b7100000000000000000000000000000000000000000000000000000000600052604160045260246000fd5b61253f82612250565b810181811067ffffffffffffffff8211171561255e5761255d612507565b5b80604052505050565b600061257161213b565b905061257d8282612536565b919050565b600067ffffffffffffffff82111561259d5761259c612507565b5b6125a682612250565b9050602081019050919050565b82818337600083830152505050565b60006125d56125d084612582565b612567565b9050828152602081018484840111156125f1576125f0612502565b5b6125fc8482856125b3565b509392505050565b600082601f830112612619576126186124fd565b5b81356126298482602086016125c2565b91505092915050565b6000806000806080858703121561264c5761264b612145565b5b600061265a87828801612392565b945050602061266b87828801612392565b935050604061267c878288016122dd565b925050606085013567ffffffffffffffff81111561269d5761269c61214a565b5b6126a987828801612604565b91505092959194509250565b600081519050919050565b600082825260208201905092915050565b6000819050602082019050919050565b6126ea8161233f565b82525050565b60006126fc83836126e1565b60208301905092915050565b6000602082019050919050565b6000612720826126b5565b61272a81856126c0565b9350612735836126d1565b8060005b8381101561276657815161274d88826126f0565b975061275883612708565b925050600181019050612739565b5085935050505092915050565b6000602082019050818103600083015261278d8184612715565b905092915050565b600080604083850312156127ac576127ab612145565b5b60006127ba85828601612392565b92505060206127cb85828601612392565b9150509250929050565b7f4e487b7100000000000000000000000000000000000000000000000000000000600052602260045260246000fd5b6000600282049050600182168061281c57607f821691505b60208210810361282f5761282e6127d5565b5b50919050565b7f4552433732313a20617070726f76616c20746f2063757272656e74206f776e6560008201527f7200000000000000000000000000000000000000000000000000000000000000602082015250565b6000612891602183612215565b915061289c82612835565b604082019050919050565b600060208201905081810360008301526128c081612884565b9050919050565b7f4552433732313a20617070726f76652063616c6c6572206973206e6f7420746f60008201527f6b656e206f776e6572206f7220617070726f76656420666f7220616c6c000000602082015250565b6000612923603d83612215565b915061292e826128c7565b604082019050919050565b6000602082019050818103600083015261295281612916565b9050919050565b7f4552433732313a2063616c6c6572206973206e6f7420746f6b656e206f776e6560008201527f72206f7220617070726f76656400000000000000000000000000000000000000602082015250565b60006129b5602d83612215565b91506129c082612959565b604082019050919050565b600060208201905081810360008301526129e4816129a8565b9050919050565b7f4e6f7420656e6f756768206e6674000000000000000000000000000000000000600082015250565b6000612a21600e83612215565b9150612a2c826129eb565b602082019050919050565b60006020820190508181036000830152612a5081612a14565b9050919050565b7f416c726561647920657870697265640000000000000000000000000000000000600082015250565b6000612a8d600f83612215565b9150612a9882612a57565b602082019050919050565b60006020820190508181036000830152612abc81612a80565b9050919050565b7f4e487b7100000000000000000000000000000000000000000000000000000000600052601160045260246000fd5b6000612afd826122bc565b915060008203612b1057612b0f612ac3565b5b600182039050919050565b600081905092915050565b50565b6000612b36600083612b1b565b9150612b4182612b26565b600082019050919050565b6000612b5782612b29565b9150819050919050565b7f4661696c656420746f2077697468647261772041564158000000000000000000600082015250565b6000612b97601783612215565b9150612ba282612b61565b602082019050919050565b60006020820190508181036000830152612bc681612b8a565b9050919050565b7f4552433732313a20696e76616c696420746f6b656e2049440000000000000000600082015250565b6000612c03601883612215565b9150612c0e82612bcd565b602082019050919050565b60006020820190508181036000830152612c3281612bf6565b9050919050565b7f4552433732313a2061646472657373207a65726f206973206e6f74206120766160008201527f6c6964206f776e65720000000000000000000000000000000000000000000000602082015250565b6000612c95602983612215565b9150612ca082612c39565b604082019050919050565b60006020820190508181036000830152612cc481612c88565b9050919050565b7f7374696c6c20617661696c61626c650000000000000000000000000000000000600082015250565b6000612d01600f83612215565b9150612d0c82612ccb565b602082019050919050565b60006020820190508181036000830152612d3081612cf4565b9050919050565b6000612d42826122bc565b91507fffffffffffffffffffffffffffffffffffffffffffffffffffffffffffffffff8203612d7457612d73612ac3565b5b600182019050919050565b600081905092915050565b7f7b226e616d65223a202200000000000000000000000000000000000000000000600082015250565b6000612dc0600a83612d7f565b9150612dcb82612d8a565b600a82019050919050565b6000612de18261220a565b612deb8185612d7f565b9350612dfb818560208601612226565b80840191505092915050565b7f202d2d204e465420233a20000000000000000000000000000000000000000000600082015250565b6000612e3d600b83612d7f565b9150612e4882612e07565b600b82019050919050565b7f222c20226465736372697074696f6e223a202200000000000000000000000000600082015250565b6000612e89601383612d7f565b9150612e9482612e53565b601382019050919050565b60008190508160005260206000209050919050565b60008154612ec181612804565b612ecb8186612d7f565b94506001821660008114612ee65760018114612efb57612f2e565b60ff1983168652811515820286019350612f2e565b612f0485612e9f565b60005b83811015612f2657815481890152600182019150602081019050612f07565b838801955050505b50505092915050565b7f222c2022696d616765223a202200000000000000000000000000000000000000600082015250565b6000612f6d600d83612d7f565b9150612f7882612f37565b600d82019050919050565b7f68747470733a2f2f692e696d6775722e636f6d2f475a43647458752e6a706700600082015250565b6000612fb9601f83612d7f565b9150612fc482612f83565b601f82019050919050565b7f227d000000000000000000000000000000000000000000000000000000000000600082015250565b6000613005600283612d7f565b915061301082612fcf565b600282019050919050565b600061302682612db3565b91506130328286612dd6565b915061303d82612e30565b91506130498285612dd6565b915061305482612e7c565b91506130608284612eb4565b915061306b82612f60565b915061307682612fac565b915061308182612ff8565b9150819050949350505050565b7f646174613a6170706c69636174696f6e2f6a736f6e3b6261736536342c000000600082015250565b60006130c4601d83612d7f565b91506130cf8261308e565b601d82019050919050565b60006130e5826130b7565b91506130f18284612dd6565b915081905092915050565b7f4e487b7100000000000000000000000000000000000000000000000000000000600052603260045260246000fd5b7f4552433732313a207472616e736665722066726f6d20696e636f72726563742060008201527f6f776e6572000000000000000000000000000000000000000000000000000000602082015250565b6000613187602583612215565b91506131928261312b565b604082019050919050565b600060208201905081810360008301526131b68161317a565b9050919050565b7f4552433732313a207472616e7366657220746f20746865207a65726f2061646460008201527f7265737300000000000000000000000000000000000000000000000000000000602082015250565b6000613219602483612215565b9150613224826131bd565b604082019050919050565b600060208201905081810360008301526132488161320c565b9050919050565b7f4552433732313a20617070726f766520746f2063616c6c657200000000000000600082015250565b6000613285601983612215565b91506132908261324f565b602082019050919050565b600060208201905081810360008301526132b481613278565b9050919050565b7f4552433732313a207472616e7366657220746f206e6f6e20455243373231526560008201527f63656976657220696d706c656d656e7465720000000000000000000000000000602082015250565b6000613317603283612215565b9150613322826132bb565b604082019050919050565b600060208201905081810360008301526133468161330a565b9050919050565b7f4e487b7100000000000000000000000000000000000000000000000000000000600052601260045260246000fd5b6000613387826122bc565b9150613392836122bc565b92508282019050808211156133aa576133a9612ac3565b5b92915050565b60006133bb826122bc565b91506133c6836122bc565b9250826133d6576133d561334d565b5b828204905092915050565b60006133ec826122bc565b91506133f7836122bc565b9250828202613405816122bc565b9150828204841483151761341c5761341b612ac3565b5b5092915050565b600081519050919050565b600082825260208201905092915050565b600061344a82613423565b613454818561342e565b9350613464818560208601612226565b61346d81612250565b840191505092915050565b600060808201905061348d6000830187612351565b61349a6020830186612351565b6134a76040830185612467565b81810360608301526134b9818461343f565b905095945050505050565b6000815190506134d38161217b565b92915050565b6000602082840312156134ef576134ee612145565b5b60006134fd848285016134c4565b91505092915050565b7f4552433732313a206d696e7420746f20746865207a65726f2061646472657373600082015250565b600061353c602083612215565b915061354782613506565b602082019050919050565b6000602082019050818103600083015261356b8161352f565b9050919050565b7f4552433732313a20746f6b656e20616c7265616479206d696e74656400000000600082015250565b60006135a8601c83612215565b91506135b382613572565b602082019050919050565b600060208201905081810360008301526135d78161359b565b905091905056fe4142434445464748494a4b4c4d4e4f505152535455565758595a6162636465666768696a6b6c6d6e6f707172737475767778797a303132333435363738392b2fa2646970667358221220753bb187d5530c0a799a01c3a89feaea5d3468c51c25cd3835b50e2c3cbcd5db64736f6c63430008120033a26469706673582212200972306762fd5a1eda3c73ae153cce9d071ab9b694d93b090b5142cf111b821264736f6c63430008120033",
  "linkReferences": {},
  "deployedLinkReferences": {}
}